:020000040800F2
:100000000000012079120008B1110008B7110008A2
:10001000BD110008C3110008C9110008000000004C
:10002000000000000000000000000000CF110008E8
:10003000DD11000800000000EB110008F9110008B4
:10004000C9120008C9120008C9120008C912000824
:10005000C9120008C9120008C9120008C912000814
:10006000C9120008C9120008C9120008C912000804
:10007000C9120008C9120008C9120008C9120008F4
:1000800005120008C9120008C9120008000000008B
:10009000000000000000000000000000C91200087D
:1000A000C9120008C9120008C9120008C9120008C4
:1000B000C9120008C9120008C9120008C9120008B4
:1000C000C9120008C9120008C9120008C9120008A4
:1000D000C912000819120008C91200080000000027
:1000E000C9120008C9120008C91200080000000067
:1000F0000000000000000000000000002D120008B9
:1001000000000000C9120008C9120008C912000846
:1001100000000000000000000000000000000000DF
:1001200041120008C9120008C9120008C9120008CB
:10013000C9120008000000000000000000000000DC
:10014000000000000000000000000000C9120008CC
:10015000C9120008C9120008C9120008C912000813
:10016000C9120008C91200080000000000000000C9
:10017000000000000000000000000000000000007F
:1001800000000000C912000800000000000000008C
:04019000C912000888
:1001940010B5054C237833B9044B13B10448AFF3BD
:1001A40000800123237010BD140000200000000013
:1001B400444A000808B5034B1BB103490348AFF395
:1001C400008008BD0000000018000020444A000818
:1001D40053B94AB9002908BF00281CBF4FF0FF31AA
:1001E4004FF0FF3000F070B9ADF1080C6DE904CEAA
:1001F40000F006F8DDF804E0DDE9022304B07047FE
:100204002DE9F047089E0D4604460F46002B4AD1BF
:100214008A42944665D9B2FA82F343B102FA03FCE6
:10022400C3F120029F4020FA02F217439C404FEA98
:100234001C4E1FFA8CF5B7FBFEF1220C0EFB117756
:1002440042EA074201FB05F090420AD91CEB020284
:1002540001F1FF3780F01C81904240F2198102398C
:100264006244121AA4B2B2FBFEF00EFB102244EA5E
:10027400024400FB05F5A5420AD91CEB040400F175
:10028400FF3280F00781A54240F2048164440238C1
:1002940040EA0140641B00211EB1DC400023C6E992
:1002A4000043BDE8F0878B4208D9002E00F0ED80B2
:1002B4000021C6E900050846BDE8F087B3FA83F1DA
:1002C400002949D1AB4202D3824200F2F880841A59
:1002D40065EB030201201746002EE2D0C6E9004771
:1002E400DFE702B9FFDEB2FA82F3002B40F0908020
:1002F4008A1A4FEA1C471FFA8CFE0121B2FBF7F55C
:1003040007FB1520220C42EA00420EFB05F0904246
:1003140008D91CEB020205F1FF3802D2904200F228
:10032400CB804546121AA4B2B2FBF7F007FB1022A9
:1003340044EA02440EFB00FEA64508D91CEB040463
:1003440000F1FF3202D2A64500F2BB801046A4EBB6
:100354000E0440EA05409FE7C1F120078B4022FAD2
:1003640007FC4CEA030C05FA01F420FA07F3FD40FC
:100374004FEA1C492343B5FBF9F81FFA8CFE09FB2D
:1003840018551C0C44EA054408FB0EF5A54202FA74
:1003940001F200FA01F00BD91CEB040408F1FF3A56
:1003A40080F08880A54240F28580A8F10208644468
:1003B400641B9DB2B4FBF9F309FB134445EA0444FE
:1003C40003FB0EFEA64508D91CEB040403F1FF351C
:1003D4006CD2A6456AD9023B644443EA0843A3FBB2
:1003E4000295A4EB0E04AC42C846AE4656D353D095
:1003F40056B1B0EB080264EB0E0404FA07F7CA40E6
:10040400CC401743C6E9007418460021BDE8F087C4
:10041400C3F1200102FA03FC20FA01F225FA01F1EA
:100424009D402A434FEA1C471FFA8CFEB1FBF7F0AC
:1004340007FB1015110C41EA054100FB0EF58D4236
:1004440004FA03F408D91CEB010100F1FF382FD2A0
:100454008D422DD902386144491B92B2B1FBF7F5A4
:1004640007FB151142EA014205FB0EF1914208D93E
:100474001CEB020205F1FF3816D2914214D9023D59
:100484006244521A45EA004138E73146304608E7EB
:100494003946E6E61046FBE64845A9D2B9EB020820
:1004A40065EB0C0E013BA3E74546EAE72B4694E7D0
:1004B4004046D1E7D0467BE7023D624432E7084636
:1004C4000AE76444023842E7704700BF80B582B04F
:1004D40000AF78607B681B68114A93421BD1114BB3
:1004E4001B78DAB2531CD9B20E4B19700E4BA3FB16
:1004F4000213D9080B469B000B445B00D31ADBB2F2
:100504001A460A4B1B78D9B2094B99540122074960
:10051400084803F045FB00BF0837BD4680BD00BF57
:100524000010014042020020CDCCCCCC340200208B
:1005340038020020E001002080B582B002AF00F054
:10054400C3FE00F0C3F900F04DFB00F00DFB00F01A
:100554001DFA00F0DFFA00F079FA0421A04802F055
:10056400B1FE08219E4802F0ADFE01229D499E483D
:1005740003F016FB9D4B1B78012B40F0CA8002222E
:100584009B499C4800F056FF994B1B6840F6330288
:10059400934220DD00F0BCFB954B18684FF4C87300
:1005A400009300234FF4805240F6340100F06CFBBA
:1005B4000346914A13608E4B18684FF4C873009336
:1005C40000234FF4805240F6340100F05DFB0346F3
:1005D4008A4A136026E0864B1B6840F26C72934291
:1005E4001EDC00F0B3FB824B18684FF4C873009311
:1005F4000023002240F26C7100F046FB03467E4A61
:1006040013607B4B18684FF4C873009300230022D7
:1006140040F26C7100F038FB0346784A136001E045
:1006240000F04EFB724B5B6840F26B72934233DC1A
:100634006F4B58684FF4C87300930023002240F2B4
:100644006C7100F021FB03461A466D4B1A606C4B2B
:100654001B685B00684A126813441A46664B1A60AA
:10066400664B1B681A46664B1B68D31A1A46634BC3
:100674001A60614B1B68B3F5C87F03DD5E4B4FF412
:10068400C8721A605D4B1B68002B02DA5B4B0022B8
:100694001A6000F097FBFBE0554B5B6840F666027E
:1006A400934240F3F580524B58684FF4C87300935B
:1006B40000234FF4805240F6660100F0E5FA034649
:1006C4001A464F4B1A604C4B1B681A464C4B1B681E
:1006D4005B00D31A1A46484B1A60484B1B681A46EB
:1006E400474B1B6813441A46444B1A60424B1B6821
:1006F400002B02DA404B00221A60404B1B68B3F512
:10070400C87F03DD3D4B4FF4C8721A6000F03CFB18
:10071400BEE0364B1B78022B40F0BA80314B1B787D
:10072400DBB2462B0DD1374B1B68334A1360354B74
:100734001B68324A136000F0EBFA334B01221A7043
:10074400A6E0284B1B78DBB2522B1BD12D4B1B6828
:10075400294A13602B4B1B68284A13602A4B1B78C9
:10076400002B0CD0244B1B68323B234A1360234BD1
:100774001B683233214A136000F0CAFA88E000F0A3
:1007840003FB85E0174B1B78DBB24C2B1BD11D4BB5
:100794001B68194A13601B4B1B68184A13601A4BD9
:1007A4001B78002B0CD0144B1B683233124A136095
:1007B400124B1B68323B114A136000F0A9FA67E040
:1007C40000F000FB64E0074B1B78DBB2432B2CD119
:1007D4000D4B1B78002B19D100F072FA58E000BFC2
:1007E400D800002034020020E00100200500002091
:1007F4002C02002030000020440200204802002087
:10080400280200200000002043020020264B1B7811
:10081400002B3DD000F07CFA244B1B68244A136063
:10082400224B1B68234A136032E0234B1B78DBB254
:10083400542B1ED1214B1B78002B03D01F4B0022BD
:100844001A7002E01D4B01221A701D4B1B78DBB29B
:100854000133DAB21A4B114619701A4B43219954D9
:10086400154B43221A70104B00221A7000F028FA1C
:100874000EE0114B1B78DBB2532B04D00E4B1B78CC
:10088400DBB24E2B04D100F01BFA074B00221A7086
:10089400074B1A680C4B1B68DA63064B1A680A4B41
:1008A4001B689A6366E600BF430200200000002034
:1008B40044020020480200203402002004000020EA
:1008C4004202002038020020D800002080B594B0F5
:1008D40000AF07F1200330220021184604F084F809
:1008E40007F10C0300221A605A609A60DA601A61F8
:1008F4000023BB60234B1B6C224A43F080531364D8
:10090400204B1B6C03F08053BB60BB6800237B60EF
:100914001D4B1B6823F440431B4A43F400431360FC
:10092400194B1B6803F440437B607B6802233B62E2
:100934000123FB6210233B630023BB6307F1200305
:10094400184601F0D7FF0346002B01D000F058FAF7
:100954000F23FB6000233B6180237B610023BB6189
:100964000023FB6107F10C030021184602F03AFA58
:100974000346002B01D000F043FA00BF5037BD46B8
:1009840080BD00BF003802400070004080B584B0D4
:1009940000AF3B4600221A605A609A60DA60284B26
:1009A400284A1A60264B00225A60254B00229A607E
:1009B400234B01221A61224B01221A76204B00227A
:1009C40083F820201E4B0022DA621D4B1E4A9A62D5
:1009D4001B4B0022DA601A4B0222DA61184B002208
:1009E40083F83020164B01225A61154800F0DEFCD2
:1009F4000346002B01D000F003FA01233B600123DE
:100A04007B600323BB603B4619460D4800F020FE83
:100A14000346002B01D000F0F3F902233B600223CC
:100A24007B603B461946064800F012FE0346002B45
:100A340001D000F0E5F900BF1037BD4680BD00BF0E
:100A440030000020002001400100000F80B58AB072
:100A540000AF07F1200300221A605A603B1D0022F8
:100A64001A605A609A60DA601A615A619A61274B77
:100A7400274A1A60254B01225A60244B00229A60AF
:100A8400224B40F28F12DA60204B00221A611F4B76
:100A940000229A611D4802F0C5FB0346002B01D0D9
:100AA40000F0AEF900233B6200237B6207F12003D0
:100AB4001946164802F0B6FF0346002B01D000F099
:100AC4009FF960237B600023BB600023FB6000234D
:100AD4007B613B1D042219460C4802F0A3FC03462B
:100AE400002B01D000F08CF93B1D08221946074861
:100AF40002F098FC0346002B01D000F081F9034872
:100B040000F0AAFA00BF2837BD4680BDD8000020F7
:100B14000004004080B500AF114B124A1A60104B1C
:100B24004FF4E1325A600E4B00229A600C4B0022C3
:100B3400DA600B4B00221A61094B0C225A61084BF4
:100B440000229A61064B4FF40042DA61044802F035
:100B5400D7FF0346002B01D000F052F900BF80BD3F
:100B6400E00100200010014080B582B000AF0023F6
:100B74007B601B4B1B6B1A4A43F480031363184BB3
:100B84001B6B03F480037B607B6800233B60144B86
:100B94001B6B134A43F400131363114B1B6B03F4D5
:100BA40000133B603B6800220021102001F0CBF8C9
:100BB400102001F0E4F8002200212F2001F0C3F8F6
:100BC4002F2001F0DCF800220021382001F0BBF8CE
:100BD400382001F0D4F800BF0837BD4680BD00BFFF
:100BE4000038024080B588B000AF07F10C03002242
:100BF4001A605A609A60DA601A610023BB60204B65
:100C04001B6B1F4A43F0800313631D4B1B6B03F0E4
:100C14008003BB60BB6800237B60194B1B6B184AC5
:100C240043F001031363164B1B6B03F001037B605A
:100C34007B6800233B60124B1B6B114A43F0020399
:100C440013630F4B1B6B03F002033B603B680022F2
:100C54004FF470410B4801F033FE4FF47043FB60D6
:100C640001233B6100237B610023BB6107F10C037B
:100C74001946044801F0A0FC00BF2037BD4680BDE2
:100C8400003802400004024080B485B000AFF86030
:100C9400B9607A603B60FA68BB68D31AB9693A688C
:100CA4008A1A03FB02F27968BB68CB1A92FBF3F24F
:100CB4003B68134418461437BD465DF8047B7047FF
:100CC40080B500AF0F4B00221A600F4B00221A6050
:100CD40000224FF480510D4801F0F2FD00224FF440
:100CE40000510A4801F0ECFD00224FF4804107480E
:100CF40001F0E6FD00224FF40041044801F0E0FD5C
:100D040000BF80BD440200204802002000040240CD
:100D140080B500AF01224FF480510B4801F0D0FDA3
:100D240000224FF40051084801F0CAFD01224FF49B
:100D34008041054801F0C4FD00224FF400410248FF
:100D440001F0BEFD00BF80BD0004024080B500AFCD
:100D540000224FF480510B4801F0B2FD01224FF400
:100D64000051084801F0ACFD00224FF480410548D1
:100D740001F0A6FD01224FF40041024801F0A0FD5C
:100D840000BF80BD0004024080B500AF00224FF4D4
:100D940080510B4801F094FD00224FF400510848A3
:100DA40001F08EFD01224FF48041054801F088FDD9
:100DB40000224FF40041024801F082FD00BF80BDD3
:100DC4000004024080B500AF01224FF480510B486B
:100DD40001F076FD00224FF40051084801F070FD47
:100DE40000224FF48041054801F06AFD00224FF4CF
:100DF4000041024801F064FD00BF80BD00040240D0
:100E040080B400AF72B600BFFEE7000080B483B0C8
:100E140000AF00237B60104B5B6C0F4A43F48043AC
:100E240053640D4B5B6C03F480437B607B6800234D
:100E34003B60094B1B6C084A43F080531364064B18
:100E44001B6C03F080533B603B6800BF0C37BD460E
:100E54005DF8047B704700BF0038024080B58AB05B
:100E640000AF786007F1140300221A605A609A6098
:100E7400DA601A617B681B682E4A934256D10023BC
:100E84003B612D4B5B6C2C4A43F4807353642A4BB7
:100E94005B6C03F480733B613B690023FB60264B6E
:100EA4001B6B254A43F001031363234B1B6B03F0B5
:100EB4000103FB60FB6806237B610323BB61002302
:100EC400FB6107F1140319461C4801F075FB1C4B28
:100ED4001C4A1A601A4B00225A60194B00229A606D
:100EE400174B0022DA60164B4FF480621A61144BE0
:100EF4004FF480525A61124B4FF480429A61104B66
:100F04000022DA610E4B00221A620D4B00225A6253
:100F14000B4800F04FFF0346002B01D0FFF770FF92
:100F24007B68074A9A63064A7B68936300BF283745
:100F3400BD4680BD00200140003802400000024050
:100F4400780000201064024080B584B000AF78605F
:100F54007B681B683A4A93426DD10023FB60394B8E
:100F64001B6C384A43F002031364364B1B6C03F0CA
:100F74000203FB60FB68344B344A1A60324B4FF077
:100F840020625A60304B40229A602F4B0022DA6074
:100F94002D4B4FF480621A612B4B4FF400625A615F
:100FA400294B4FF400529A61274B0022DA61264BF9
:100FB40000221A62244B00225A62234800F0FAFEEF
:100FC4000346002B01D0FFF71BFF7B681E4A9A6281
:100FD4001D4A7B6893631E4B1E4A1A601C4B4FF0DC
:100FE40020625A601A4B00229A60194B0022DA6080
:100FF400174B4FF480621A61154B4FF400625A612B
:10100400134B4FF400529A61114B0022DA61104BDA
:1010140000221A620E4B00225A620D4800F0CAFEEA
:101024000346002B01D0FFF7EBFE7B68084ADA6227
:10103400074A7B68936300BF1037BD4680BD00BF7D
:101044000004004000380240200100208860024073
:1010540080010020B860024080B58AB000AF78609B
:1010640007F1140300221A605A609A60DA601A6168
:101074007B681B68214A93423BD100233B61204B90
:101084001B6B1F4A43F0010313631D4B1B6B03F0DF
:1010940001033B613B690023FB60194B1B6B184A3E
:1010A40043F002031363164B1B6B03F00203FB6054
:1010B400FB6880237B610223BB610023FB61002367
:1010C4003B6202237B6207F1140319460D4801F0C9
:1010D40073FA01237B610223BB610023FB610023BC
:1010E4003B6202237B6207F114031946064801F0B0
:1010F40063FA00BF2837BD4680BD00BF000400402E
:1011040000380240000002400004024080B58AB06A
:1011140000AF786007F1140300221A605A609A60E5
:10112400DA601A617B681B681D4A934234D100233C
:101134003B611C4B5B6C1B4A43F010035364194B1B
:101144005B6C03F010033B613B690023FB60154BB0
:101154001B6B144A43F001031363124B1B6B03F024
:101164000103FB60FB684FF4C0637B610223BB6136
:101174000023FB6103233B6207237B6207F1140313
:101184001946094801F018FA00220021252000F030
:10119400DAFD252000F0F3FD00BF2837BD4680BDF1
:1011A40000100140003802400000024080B400AF4B
:1011B400FEE780B400AFFEE780B400AFFEE780B482
:1011C40000AFFEE780B400AFFEE780B400AF00BF1D
:1011D400BD465DF8047B704780B400AF00BFBD46D8
:1011E4005DF8047B704780B400AF00BFBD465DF876
:1011F400047B704780B500AF00F0B8F800BF80BD35
:1012040080B500AF024800F06DFF00BF80BD00BF95
:101214002001002080B500AF024802F0E7FC00BFC7
:1012240080BD00BFE001002080B500AF024800F09F
:1012340059FF00BF80BD00BF8001002080B500AF12
:10124400024800F04FFF00BF80BD00BF78000020BF
:1012540080B400AF064BD3F88830054A43F47003DA
:10126400C2F8883000BFBD465DF8047B704700BFFC
:1012740000ED00E0DFF834D0FFF7EAFF0C480D4939
:101284000D4A002302E0D458C4500433C4188C42DD
:10129400F9D30A4A0A4C002301E013600432A24243
:1012A400FBD303F0A9FBFFF747F9704700000120C7
:1012B40000000020140000208C4A000814000020C4
:1012C40050020020FEE7000080B500AF0E4B1B6803
:1012D4000D4A43F4007313600B4B1B680A4A43F432
:1012E40080631360084B1B68074A43F480731360E0
:1012F400032000F01DFD0F2000F008F8FFF786FD25
:101304000023184680BD00BF003C024080B582B077
:1013140000AF7860124B1A68124B1B7819464FF4D1
:101324007A73B3FBF1F3B2FBF3F3184600F035FD27
:101334000346002B01D001230EE07B680F2B0AD853
:10134400002279684FF0FF3000F0FDFC064A7B680C
:101354001360002300E0012318460837BD4680BD12
:1013640008000020100000200C00002080B400AF12
:10137400064B1B781A46064B1B681344044A136039
:1013840000BFBD465DF8047B704700BF100000201D
:101394004C02002080B400AF034B1B681846BD46C6
:1013A4005DF8047B704700BF4C02002080B584B018
:1013B40000AF78600023FB737B68002B01D101230D
:1013C40033E07B681B6C002B09D17868FFF746FD7E
:1013D4007B6800225A647B68002283F83C207B6887
:1013E4001B6C03F01003002B18D17B681B6C23F4D7
:1013F400885323F0020343F002027B681A6478687E
:1014040000F048FA7B6800225A647B681B6C23F066
:10141400030343F001027B681A6401E00123FB73B8
:101424007B68002283F83C20FB7B18461037BD46BE
:1014340080BD000080B586B000AFF860B9607A6006
:1014440000233B61FB6893F83C30012B01D102235C
:10145400CEE0FB68012283F83C20FB681B689B6894
:1014640003F00103012B18D0FB681B689A68FB6822
:101474001B6842F001029A605F4B1B685F4AA2FB43
:1014840003239A0C13465B0013443B6102E03B695F
:10149400013B3B613B69002BF9D1FB681B689B68EE
:1014A40003F48073B3F5807F07D1FB681B689A68E7
:1014B400FB681B6822F480729A60FB681B689B6857
:1014C40003F00103012B40F08680FB681B6C23F4BE
:1014D400E06323F0010343F48072FB681A64FB6841
:1014E4001B685B6803F48063002B07D0FB681B6CEC
:1014F40023F4405343F48052FB681A64FB681B6C6A
:1015040003F48053B3F5805F06D1FB685B6C23F072
:101514000602FB685A6402E0FB6800225A64FB6816
:10152400002283F83C20364B7B61FB689B6B354A79
:10153400DA63FB689B6B344A1A64FB689B6B334A1F
:10154400DA64FB681B686FF022021A60FB681B6890
:101554005A68FB681B6842F080625A60FB681B682B
:101564009A68FB681B6842F480729A60FB68986B07
:10157400FB681B684C331946BA687B6800F0C8FCEA
:101584007B695B6803F01F03002B0FD1FB681B68AA
:101594009B6803F04053002B29D1FB681B689A68B1
:1015A400FB681B6842F080429A6020E0FB681B687D
:1015B400174A93421BD1FB681B689B6803F0405396
:1015C400002B14D1FB681B689A68FB681B6842F007
:1015D40080429A600BE0FB681B6C43F01002FB68CE
:1015E4001A64FB685B6C43F00102FB685A640023D5
:1015F40018461837BD4680BD0800002083DE1B4313
:1016040000230140911A00084B1B0008671B0008C7
:101614000020014080B483B000AF786000BF0C3775
:10162400BD465DF8047B704780B483B000AF78603A
:1016340000BF0C37BD465DF8047B704780B483B0AF
:1016440000AF786000BF0C37BD465DF8047B70477F
:1016540080B485B000AF786039600023BB607B68DC
:1016640093F83C30012B01D1022305E17B68012270
:1016740083F83C203B681B68092B25D97B681B68D1
:10168400D9683B681B689BB21A4613465B00134437
:101694001E3B072202FA03F3DA437B681B680A4005
:1016A400DA607B681B68D9683B689A683B681B688A
:1016B4009BB2184603465B0003441E3B9A407B687A
:1016C4001B680A43DA6022E07B681B6819693B687F
:1016D4001B689BB21A4613465B001344072202FAA6
:1016E40003F3DA437B681B680A401A617B681B6852
:1016F40019693B689A683B681B689BB218460346A5
:101704005B0003449A407B681B680A431A613B6888
:101714005B68062B24D87B681B68596B3B685A6846
:1017240013469B001344053B1F2202FA03F3DA43DA
:101734007B681B680A405A637B681B68596B3B686B
:101744001B689BB218463B685A6813469B001344B7
:10175400053B00FA03F27B681B680A435A634CE0BA
:101764003B685B680C2B24D87B681B68196B3B684F
:101774005A6813469B001344233B1F2202FA03F3C7
:10178400DA437B681B680A401A637B681B68196B21
:101794003B681B689BB218463B685A6813469B001B
:1017A4001344233B00FA03F27B681B680A431A6361
:1017B40023E07B681B68D96A3B685A6813469B0020
:1017C4001344413B1F2202FA03F3DA437B681B688C
:1017D4000A40DA627B681B68D96A3B681B689BB263
:1017E40018463B685A6813469B001344413B00FA71
:1017F40003F27B681B680A43DA62224BFB607B6856
:101804001B68214A934209D13B681B68122B05D1FE
:10181400FB685B6843F48002FB685A607B681B6862
:10182400194A934223D13B681B68102B03D03B68B1
:101834001B68112B1BD1FB685B6843F40002FB6837
:101844005A603B681B68102B11D1104B1B68104A5F
:10185400A2FB03239A0C13469B0013445B00BB605A
:1018640002E0BB68013BBB60BB68002BF9D17B681D
:10187400002283F83C20002318461437BD465DF847
:10188400047B704700230140002001400800002031
:1018940083DE1B4380B485B000AF7860794BFB6076
:1018A400FB685B6823F44032FB685A60FB685A6843
:1018B4007B685B681A43FB685A607B681B685A68DC
:1018C4007B681B6822F480725A607B681B685968C5
:1018D4007B681B691A027B681B680A435A607B6831
:1018E4001B685A687B681B6822F040725A607B68E8
:1018F4001B6859687B689A687B681B680A435A604E
:101904007B681B689A687B681B6822F400629A6093
:101914007B681B6899687B68DA687B681B680A4384
:101924009A607B689B6A584A934222D07B681B6802
:101934009A687B681B6822F070629A607B681B68F7
:1019440099687B689A6A7B681B680A439A607B681B
:101954001B689A687B681B6822F040529A607B6817
:101964001B6899687B68DA6A7B681B680A439A601B
:101974000FE07B681B689A687B681B6822F07062C2
:101984009A607B681B689A687B681B6822F04052E7
:101994009A607B681B689A687B681B6822F0020265
:1019A4009A607B681B6899687B681B7E5A007B6819
:1019B4001B680A439A607B6893F82030002B1BD085
:1019C4007B681B685A687B681B6842F400625A6033
:1019D4007B681B685A687B681B6822F460425A6003
:1019E4007B681B6859687B685B6A013B5A037B68A8
:1019F4001B680A435A6007E07B681B685A687B6867
:101A04001B6822F400625A607B681B68DA6A7B6890
:101A14001B6822F47002DA627B681B68D96A7B68EF
:101A2400DB69013B1A057B681B680A43DA627B6841
:101A34001B689A687B681B6822F400729A607B6852
:101A44001B6899687B6893F830305A027B681B687E
:101A54000A439A607B681B689A687B681B6822F457
:101A640080629A607B681B6899687B685B699A02EC
:101A74007B681B680A439A6000BF1437BD465DF853
:101A8400047B7047002301400100000F80B584B03F
:101A940000AF78607B689B6BFB60FB681B6C03F09A
:101AA4005003002B3CD1FB681B6C43F40072FB68B1
:101AB4001A64FB681B689B6803F04053002B2BD10E
:101AC400FB681B7E002B27D1FB681B68DB6A03F4D1
:101AD4007003002B06D0FB681B689B6803F48063CB
:101AE400002B19D1FB681B685A68FB681B6822F03D
:101AF40020025A60FB681B6C23F48072FB681A6432
:101B0400FB681B6C03F48053002B05D1FB681B6C32
:101B140043F00102FB681A64F868FFF77BFD0EE0EE
:101B2400FB681B6C03F01003002B03D0F868FFF76D
:101B340085FD04E0FB689B6BDB6C7868984700BF0D
:101B44001037BD4680BD80B584B000AF78607B6837
:101B54009B6BFB60F868FFF767FD00BF1037BD465D
:101B640080BD80B584B000AF78607B689B6BFB6000
:101B7400FB6840221A64FB685B6C43F00402FB6858
:101B84005A64F868FFF75AFD00BF1037BD4680BDA0
:101B940080B485B000AF78607B6803F00703FB6016
:101BA4000C4BDB68BB60BA684FF6FF031340BB60A5
:101BB400FB681A02BB68134343F0BF6343F400336A
:101BC400BB60044ABB68D36000BF1437BD465DF8F0
:101BD400047B704700ED00E080B400AF044BDB6889
:101BE4001B0A03F007031846BD465DF8047B7047E3
:101BF40000ED00E080B483B000AF0346FB7197F9B9
:101C04000730002B0BDBFB7903F01F02074997F920
:101C140007305B09012000FA02F241F8232000BFDB
:101C24000C37BD465DF8047B704700BF00E100E05F
:101C340080B483B000AF03463960FB7197F9073075
:101C4400002B0ADB3B68DAB20C4997F90730120122
:101C5400D2B20B4483F800230AE03B68DAB20849A5
:101C6400FB7903F00F03043B1201D2B20B441A7642
:101C740000BF0C37BD465DF8047B704700E100E00F
:101C840000ED00E080B489B000AFF860B9607A601C
:101C9400FB6803F00703FB61FB69C3F10703042B33
:101CA40028BF0423BB61FB690433062B02D9FB69FB
:101CB400033B00E000237B614FF0FF32BB6902FA73
:101CC40003F3DA43BB681A407B699A404FF0FF3153
:101CD4007B6901FA03F3D9437B680B40134318462D
:101CE4002437BD465DF8047B7047000080B582B0A0
:101CF40000AF78607B68013BB3F1807F01D301239F
:101D04000FE00A4A7B68013B53600F214FF0FF301C
:101D1400FFF78EFF054B00229A60044B07221A60DE
:101D2400002318460837BD4680BD00BF10E000E020
:101D340080B582B000AF78607868FFF729FF00BFF4
:101D44000837BD4680BD80B586B000AF0346B96094
:101D54007A60FB7300237B61FFF73EFF78617A684A
:101D6400B9687869FFF78EFF024697F90F3011467C
:101D74001846FFF75DFF00BF1837BD4680BD80B52C
:101D840082B000AF0346FB7197F907301846FFF79E
:101D940031FF00BF0837BD4680BD80B582B000AFBB
:101DA40078607868FFF7A2FF034618460837BD46F7
:101DB40080BD000080B586B000AF786000237B61F1
:101DC400FFF7E8FA38617B68002B01D1012399E021
:101DD4007B68022283F835207B68002283F8342054
:101DE4007B681B681A687B681B6822F001021A6012
:101DF4000FE0FFF7CFFA02463B69D31A052B08D947
:101E04007B6820225A657B68032283F835200323EC
:101E140078E07B681B681B6803F00103002BE8D1A2
:101E24007B681B681B687B617A69384B13407B6154
:101E34007B685A687B689B681A437B68DB681A4333
:101E44007B681B691A437B685B691A437B689B69DF
:101E54001A437B68DB691A437B681B6A13437A69FC
:101E640013437B617B685B6A042B07D17B68DA6A66
:101E74007B681B6B13437A6913437B617B681B6824
:101E84007A691A607B681B685B697B617B6923F0F4
:101E940007037B617B685B6A7A6913437B617B68B8
:101EA4005B6A042B17D17B689B6A7A6913437B6155
:101EB4007B68DB6A002B0ED0786800F001FB0346D8
:101EC400002B08D07B6840225A657B68012283F886
:101ED4003520012316E07B681B687A695A617868AB
:101EE40000F0B8FA0346FB607B68DB6D3F229A4042
:101EF400FB689A607B6800225A657B68012283F83C
:101F04003520002318461837BD4680BD3F8010F0A9
:101F140080B586B000AFF860B9607A603B6000239A
:101F2400FB75FB689B6D3B61FB6893F83430012BB8
:101F340001D1022340E0FB68012283F83420FB68CE
:101F440093F83530DBB2012B2FD1FB68022283F8E2
:101F54003520FB6800225A653B687A68B968F868DE
:101F640000F04AFAFB68DB6D3F229A403B699A60B5
:101F7400FB681B681A68FB681B6842F016021A604B
:101F8400FB681B6C002B07D0FB681B681A68FB6896
:101F94001B6842F008021A60FB681B681A68FB6839
:101FA4001B6842F001021A6005E0FB68002283F816
:101FB40034200223FB75FB7D18461837BD4680BDCF
:101FC40080B584B000AF78607B689B6DFB60FFF7E1
:101FD400E1F9B8607B6893F83530DBB2022B08D0A6
:101FE4007B6880225A657B68002283F834200123B1
:101FF40052E07B681B681A687B681B6822F0160233
:102004001A607B681B685A697B681B6822F080022F
:102014005A617B681B6C002B03D17B689B6C002B83
:1020240007D07B681B681A687B681B6822F008026B
:102034001A607B681B681A687B681B6822F00102BF
:102044001A6013E0FFF7A6F90246BB68D31A052B02
:102054000CD97B6820225A657B68032283F83520DB
:102064007B68002283F83420032315E07B681B6817
:102074001B6803F00103002BE4D17B68DB6D3F2276
:102084009A40FB689A607B68012283F835207B685C
:10209400002283F83420002318461037BD4680BD43
:1020A40080B483B000AF78607B6893F83530DBB2DE
:1020B400022B04D07B6880225A6501230CE07B68E4
:1020C400052283F835207B681B681A687B681B68C7
:1020D40022F001021A60002318460C37BD465DF851
:1020E400047B704780B586B000AF78600023BB6086
:1020F4008E4B1B688E4AA2FB03239B0A7B617B6881
:102104009B6D3B613B691B68FB607B68DB6D082250
:102114009A40FB681340002B1AD07B681B681B682D
:1021240003F00403002B13D07B681B681A687B68D8
:102134001B6822F004021A607B68DB6D08229A4057
:102144003B699A607B685B6D43F001027B685A656A
:102154007B68DB6D01229A40FB681340002B12D090
:102164007B681B685B6903F08003002B0BD07B68E2
:10217400DB6D01229A403B699A607B685B6D43F09A
:1021840002027B685A657B68DB6D04229A40FB6817
:102194001340002B12D07B681B681B6803F00203FA
:1021A400002B0BD07B68DB6D04229A403B699A605C
:1021B4007B685B6D43F004027B685A657B68DB6D6A
:1021C40010229A40FB681340002B43D07B681B68A5
:1021D4001B6803F00803002B3CD07B68DB6D1022E6
:1021E4009A403B699A607B681B681B6803F48023F0
:1021F400002B18D07B681B681B6803F40023002B9A
:1022040008D17B681B6C002B24D07B681B6C78681E
:1022140098471FE07B689B6C002B1BD07B689B6CF2
:102224007868984716E07B681B681B6803F4807322
:10223400002B07D17B681B681A687B681B6822F037
:1022440008021A607B681B6C002B03D07B681B6C34
:10225400786898477B68DB6D20229A40FB681340BE
:10226400002B00F08F807B681B681B6803F0100351
:10227400002B00F087807B68DB6D20229A403B694D
:102284009A607B6893F83530DBB2052B36D17B68D6
:102294001B681A687B681B6822F016021A607B6848
:1022A4001B685A697B681B6822F080025A617B684C
:1022B4001B6C002B03D17B689B6C002B07D07B68C5
:1022C4001B681A687B681B6822F008021A607B6826
:1022D400DB6D3F229A403B699A607B68012283F858
:1022E40035207B68002283F834207B681B6D002B2B
:1022F4007ED07B681B6D7868984779E07B681B68A3
:102304001B6803F48023002B1DD07B681B681B68AB
:1023140003F40023002B0DD17B685B6C002B31D0C0
:102324007B685B6C786898472CE000BF080000204D
:10233400B5814E1B7B68DB6B002B23D07B68DB6B8A
:10234400786898471EE07B681B681B6803F48073F9
:10235400002B0FD17B681B681A687B681B6822F00E
:1023640010021A607B68012283F835207B68002202
:1023740083F834207B68DB6B002B03D07B68DB6B3A
:10238400786898477B685B6D002B32D07B685B6D07
:1023940003F00103002B22D07B68052283F835204B
:1023A4007B681B681A687B681B6822F001021A604C
:1023B400BB680133BB607A699A4207D37B681B68A8
:1023C4001B6803F00103002BF2D100E000BF7B681F
:1023D400012283F835207B68002283F834207B684F
:1023E400DB6C002B05D07B68DB6C7868984700E0D9
:1023F40000BF1837BD4680BD80B485B000AFF8601B
:10240400B9607A603B60FB681B681A68FB681B68EC
:1024140022F480221A60FB681B683A685A60FB68E1
:102424009B68402B08D1FB681B687A689A60FB683C
:102434001B68BA68DA6007E0FB681B68BA689A60D0
:10244400FB681B687A68DA6000BF1437BD465DF824
:10245400047B704780B485B000AF78607B681B68EC
:10246400DBB2103B144AA2FB03231B09FB60134A93
:10247400FB6813441B781A467B68DA65FB68032BF8
:1024840009D97B681B6823F47F7323F003031A1DA7
:102494007B689A6507E07B681B6823F47F7323F0ED
:1024A40003037A6893657B689B6D18461437BD46B1
:1024B4005DF8047B704700BFABAAAAAA744A00085F
:1024C40080B485B000AF78600023FB737B689B6A9F
:1024D400BB607B689B69002B1FD1BB68032B56D85C
:1024E40001A252F823F000BFFD2400080F250008C4
:1024F400FD240008932500087B68DB6A03F08073E1
:10250400002B46D00123FB7343E07B68DB6AB3F105
:10251400C07F40D10123FB733DE07B689B69B3F529
:10252400005F21D1BB68032B37D801A252F823F0F6
:10253400452500084B250008452500085D250008B1
:102544000123FB7330E07B68DB6A03F08073002BAC
:1025540025D00123FB7322E07B68DB6AB3F1C07FE3
:102564001FD10123FB731CE0BB68022B03D9BB689A
:10257400032B03D018E00123FB7315E07B68DB6AAF
:1025840003F08073002B0ED00123FB730BE000BF1C
:102594000AE000BF08E000BF06E000BF04E000BF9F
:1025A40002E000BF00E000BFFB7B18461437BD46C5
:1025B4005DF8047B704700BF80B489B000AF7860D9
:1025C400396000237B6100233B610023BB6100234E
:1025D400FB6159E10122FB6902FA03F37B613B6869
:1025E4001B687A6913403B613A697B699A4240F0FF
:1025F40048813B685B6803F00303012B05D03B680B
:102604005B6803F00303022B30D17B689B68BB61DA
:10261400FB695B00032202FA03F3DB43BA6913404C
:10262400BB613B68DA68FB695B0002FA03F3BA69D1
:102634001343BB617B68BA699A607B685B68BB6162
:102644000122FB6902FA03F3DB43BA691340BB615D
:102654003B685B681B0903F00102FB6902FA03F3A0
:10266400BA691343BB617B68BA695A603B685B68AB
:1026740003F00303032B17D07B68DB68BB61FB69A2
:102684005B00032202FA03F3DB43BA691340BB6124
:102694003B689A68FB695B0002FA03F3BA69134367
:1026A400BB617B68BA69DA603B685B6803F003036B
:1026B400022B23D1FB69DA087B68083253F82230F5
:1026C400BB61FB6903F007039B000F2202FA03F3CB
:1026D400DB43BA691340BB613B681A69FB6903F0C9
:1026E40007039B0002FA03F3BA691343BB61FB6956
:1026F400DA087B680832B96943F822107B681B68E2
:10270400BB61FB695B00032202FA03F3DB43BA6992
:102714001340BB613B685B6803F00302FB695B0029
:1027240002FA03F3BA691343BB617B68BA691A609E
:102734003B685B6803F44033002B00F0A280002365
:10274400FB60574B5B6C564A43F480435364544BD1
:102754005B6C03F48043FB60FB68524AFB699B0893
:10276400023352F82330BB61FB6903F003039B007F
:102774000F2202FA03F3DB43BA691340BB617B689F
:10278400494A934219D07B68484A934213D07B68E4
:10279400474A93420DD07B68464A934207D07B68F0
:1027A400454A934201D1042308E0072306E00323AA
:1027B40004E0022302E0012300E00023FA6902F0AE
:1027C400030292009340BA691343BB613549FB6924
:1027D4009B080233BA6941F82320384B9B68BB61DC
:1027E4003B69DB43BA691340BB613B685B6803F434
:1027F4008013002B03D0BA693B691343BB612F4A92
:10280400BB6993602D4BDB68BB613B69DB43BA69F1
:102814001340BB613B685B6803F40013002B03D0D7
:10282400BA693B691343BB61244ABB69D360234B38
:102834005B68BB613B69DB43BA691340BB613B68BE
:102844005B6803F40033002B03D0BA693B6913437C
:10285400BB611A4ABB695360184B1B68BB613B6977
:10286400DB43BA691340BB613B685B6803F48033A4
:10287400002B03D0BA693B691343BB610F4ABB69A0
:102884001360FB690133FB61FB690F2B7FF6A2AE7A
:1028940000BF00BF2437BD465DF8047B704700BF0E
:1028A40000380240003801400000024000040240A9
:1028B40000080240000C024000100240003C0140AD
:1028C40080B483B000AF78600B467B8013467B7086
:1028D4007B78002B03D07A887B689A6103E07B883D
:1028E4001A047B689A6100BF0C37BD465DF8047B0F
:1028F4007047000080B586B000AF78607B68002B1D
:1029040001D1012367E27B681B6803F00103002BFC
:1029140075D0884B9B6803F00C03042B0CD0854BBB
:102924009B6803F00C03082B12D1824B5B6803F401
:102934008003B3F5800F0BD17E4B1B6803F4003387
:10294400002B5BD07B685B68002B57D1012342E2EC
:102954007B685B68B3F5803F06D1764B1B68754A8C
:1029640043F4803313601DE07B685B68B3F5A02FEC
:102974000CD1704B1B686F4A43F4802313606D4B7A
:102984001B686C4A43F4803313600BE0694B1B688B
:10299400684A23F480331360664B1B68654A23F44A
:1029A400802313607B685B68002B13D0FEF7F2FC76
:1029B400386108E0FEF7EEFC02463B69D31A642B4B
:1029C40001D9032307E25B4B1B6803F40033002B9C
:1029D400F0D014E0FEF7DEFC386108E0FEF7DAFC24
:1029E40002463B69D31A642B01D90323F3E1514B0B
:1029F4001B6803F40033002BF0D100E000BF7B68B8
:102A04001B6803F00203002B63D04A4B9B6803F05E
:102A14000C03002B0BD0474B9B6803F00C03082BD3
:102A24001CD1444B5B6803F48003002B16D1414B4B
:102A34001B6803F00203002B05D07B68DB68012BC5
:102A440001D00123C7E13B4B1B6823F0F8027B68EC
:102A54001B69DB00374913430B603AE07B68DB6892
:102A6400002B20D0344B01221A60FEF793FC38610E
:102A740008E0FEF78FFC02463B69D31A022B01D90A
:102A84000323A8E12B4B1B6803F00203002BF0D0B7
:102A9400284B1B6823F0F8027B681B69DB0025497F
:102AA40013430B6015E0244B00221A60FEF772FCFE
:102AB400386108E0FEF76EFC02463B69D31A022B2C
:102AC40001D9032387E11B4B1B6803F00203002B8E
:102AD400F0D17B681B6803F00803002B36D07B68B9
:102AE4005B69002B16D0154B01221A60FEF752FCCD
:102AF400386108E0FEF74EFC02463B69D31A022B0C
:102B040001D9032367E10B4B5B6F03F00203002B36
:102B1400F0D01BE0094B00221A60FEF73BFC386141
:102B24000EE0FEF737FC02463B69D31A022B07D9A5
:102B3400032350E10038024000004742800E474220
:102B4400884B5B6F03F00203002BEAD17B681B68A0
:102B540003F00403002B00F097800023FB75814BE6
:102B64001B6C03F08053002B0FD10023BB607D4B03
:102B74001B6C7C4A43F0805313647A4B1B6C03F048
:102B84008053BB60BB680123FB75774B1B6803F460
:102B94008073002B18D1744B1B68734A43F4807301
:102BA4001360FEF7F7FB386108E0FEF7F3FB02461B
:102BB4003B69D31A022B01D903230CE16A4B1B682E
:102BC40003F48073002BF0D07B689B68012B06D143
:102BD400644B1B6F634A43F0010313671CE07B687B
:102BE4009B68052B0CD15F4B1B6F5E4A43F00403BB
:102BF40013675C4B1B6F5B4A43F0010313670BE0E5
:102C0400584B1B6F574A23F001031367554B1B6F37
:102C1400544A23F0040313677B689B68002B15D088
:102C2400FEF7B8FB38610AE0FEF7B4FB02463B69E5
:102C3400D31A41F28832934201D90323CBE0494BA2
:102C44001B6F03F00203002BEED014E0FEF7A2FB8F
:102C540038610AE0FEF79EFB02463B69D31A41F253
:102C64008832934201D90323B5E03E4B1B6F03F036
:102C74000203002BEED1FB7D012B05D1394B1B6CDC
:102C8400384A23F0805313647B689B69002B00F05F
:102C9400A180344B9B6803F00C03082B5CD07B6849
:102CA4009B69022B41D1314B00221A60FEF772FB63
:102CB400386108E0FEF76EFB02463B69D31A022B2B
:102CC40001D9032387E0274B1B6803F00073002B13
:102CD400F0D17B68DA697B681B6A1A437B685B6A9C
:102CE4009B011A437B689B6A5B08013B1B041A43E4
:102CF4007B68DB6A1B061B4913434B601B4B012299
:102D04001A60FEF747FB386108E0FEF743FB024612
:102D14003B69D31A022B01D903235CE0114B1B68D6
:102D240003F00073002BF0D054E0104B00221A6023
:102D3400FEF730FB386108E0FEF72CFB02463B69E6
:102D4400D31A022B01D9032345E0064B1B6803F079
:102D54000073002BF0D13DE07B689B69012B07D108
:102D6400012338E000380240007000406000474210
:102D74001B4B5B68FB607B689B69012B28D0FB685D
:102D840003F480027B68DB699A4221D1FB6803F07B
:102D94003F027B681B6A9A421AD1FA6847F6C073ED
:102DA40013407A68526A9201934211D1FB6803F48A
:102DB40040327B689B6A5B08013B1B049A4207D143
:102DC400FB6803F070627B68DB6A1B069A4201D0E1
:102DD400012300E0002318461837BD4680BD00BF1C
:102DE4000038024080B584B000AF786039607B68F9
:102DF400002B01D10123CCE0684B1B6803F00703CF
:102E04003A689A420CD9654B3A68D2B21A70634B4D
:102E14001B6803F007033A689A4201D00123B8E023
:102E24007B681B6803F00203002B20D07B681B68BF
:102E340003F00403002B05D0594B9B68584A43F414
:102E4400E05393607B681B6803F00803002B05D0F4
:102E5400534B9B68524A43F460439360504B9B68C6
:102E640023F0F0027B689B684D4913438B607B68B9
:102E74001B6803F00103002B44D07B685B68012BC3
:102E840007D1474B1B6803F40033002B19D10123EE
:102E94007FE07B685B68022B03D07B685B68032B55
:102EA40007D13F4B1B6803F00073002B09D10123AA
:102EB4006FE03B4B1B6803F00203002B01D101239D
:102EC40067E0374B9B6823F003027B685B683449F7
:102ED40013438B60FEF75EFAF8600AE0FEF75AFAD5
:102EE4000246FB68D31A41F28832934201D9032384
:102EF4004FE02B4B9B6803F00C027B685B689B00E4
:102F04009A42EBD1254B1B6803F007033A689A42B7
:102F14000CD2224B3A68D2B21A70204B1B6803F0D1
:102F240007033A689A4201D0012332E07B681B68A8
:102F340003F00403002B08D0194B9B6823F4E052E0
:102F44007B68DB68164913438B607B681B6803F05E
:102F54000803002B09D0124B9B6823F460427B6862
:102F64001B69DB000E4913438B6000F021F8024615
:102F74000B4B9B681B0903F00F030A49CB5C22FA35
:102F840003F3094A1360094B1B681846FEF7BEF9A0
:102F9400002318461037BD4680BD00BF003C0240E8
:102FA400003802405C4A0008080000200C000020A1
:102FB4002DE9B04F94B000AF00237B640023FB6481
:102FC40000233B640023BB64794B9B6803F00C0330
:102FD400082B0DD0082B00F2E180002B02D0042B2B
:102FE40003D0DBE0734BBB64DBE0734BBB64D8E022
:102FF4006F4B5B6803F03F037B646D4B5B6803F4CA
:103004008003002B63D06A4B5B689B090022BB637F
:10301400FA63BB6BC3F308033B6300237B63D7E909
:103024000C4522462B464FF000004FF00001590199
:1030340041EAD261500102460B462146511A3961D8
:10304400294663EB01037B614FF000024FF000035C
:10305400D7E904AB59468B01514643EA9163514683
:103064008A015146B2EB0108594663EB01094FF05E
:1030740000024FF000034FEAC90343EA58734FEAD2
:10308400C80290469946234618EB0303BB602B46BF
:1030940049EB0303FB604FF000024FF00003D7E954
:1030A400024529464B02214643EAD15321464A02AE
:1030B400104619467B6C0022BB62FA62D7E90A23E8
:1030C400FDF786F802460B461346FB6458E0384B7E
:1030D4005B689B09002218461146C0F308033B6253
:1030E40000237B62D7E9088942464B464FF0000033
:1030F4004FF00001590141EAD261500102460B46EA
:103104004146B2EB010A494663EB010B4FF0000262
:103114004FF000034FEA8B1343EA9A634FEA8A1293
:10312400B2EB0A0463EB0B054FF000024FF000030F
:10313400EB0043EA5473E20014461D464346E31889
:103144003B604B4645EB03037B604FF000024FF0BE
:103154000003D7E9004529468B02214643EA9153EF
:1031640021468A02104619467B6C0022BB61FA6133
:10317400D7E90623FDF72CF802460B461346FB64F9
:103184000B4B5B681B0C03F0030301335B003B64D4
:10319400FA6C3B6CB2FBF3F3BB6402E0054BBB641B
:1031A40000BFBB6C18465037BD46BDE8B08F00BFAA
:1031B400003802400024F40000127A0080B400AF0A
:1031C400034B1B681846BD465DF8047B704700BF7F
:1031D4000800002080B500AFFFF7F0FF0246054B62
:1031E4009B689B0A03F007030349CB5C22FA03F3B1
:1031F400184680BD003802406C4A000880B500AF14
:10320400FFF7DCFF0246054B9B685B0B03F00703EB
:103214000349CB5C22FA03F3184680BD0038024010
:103224006C4A000880B582B000AF78607B68002BE0
:1032340001D1012341E07B6893F83D30DBB2002BE0
:1032440006D17B68002283F83C207868FDF77CFE79
:103254007B68022283F83D207B681A687B6804330C
:103264001946104600F0A0F97B68012283F8462035
:103274007B68012283F83E207B68012283F83F208B
:103284007B68012283F840207B68012283F8412077
:103294007B68012283F842207B68012283F8432063
:1032A4007B68012283F844207B68012283F845204F
:1032B4007B68012283F83D20002318460837BD4669
:1032C40080BD000080B584B000AF786039603B6891
:1032D400002B09D17B6893F83E30DBB2012B14BF7D
:1032E40001230023DBB222E03B68042B09D17B6875
:1032F40093F83F30DBB2012B14BF01230023DBB270
:1033040015E03B68082B09D17B6893F84030DBB2A9
:10331400012B14BF01230023DBB208E07B6893F880
:103324004130DBB2012B14BF01230023DBB2002B9D
:1033340001D0012368E03B68002B04D17B680222A2
:1033440083F83E2013E03B68042B04D17B680222FF
:1033540083F83F200BE03B68082B04D17B680222F2
:1033640083F8402003E07B68022283F841207B68D5
:103374001B6801223968184600F02EFB7B681B6825
:10338400234A934207D17B681B685A6C7B681B688D
:1033940042F400425A647B681B681D4A934218D069
:1033A4007B681B68B3F1804F13D07B681B68194A94
:1033B40093420ED07B681B68174A934209D07B68FE
:1033C4001B68164A934204D07B681B68144A9342D4
:1033D40011D17B681B689B6803F00703FB60FB68E3
:1033E400062B10D07B681B681A687B681B6842F048
:1033F40001021A6007E07B681B681A687B681B6817
:1034040042F001021A60002318461037BD4680BD01
:10341400000001400004004000080040000C00408F
:103424000040014080B586B000AFF860B9607A60B2
:103434000023FB75FB6893F83C30012B01D1022378
:10344400AEE0FB68012283F83C207B680C2B00F281
:103454009F8001A252F823F09134000895350008AA
:103464009535000895350008D134000895350008D5
:103474009535000895350008133500089535000882
:10348400953500089535000853350008FB681B681E
:10349400B968184600F014F9FB681B689A69FB6860
:1034A4001B6842F008029A61FB681B689A69FB6812
:1034B4001B6822F004029A61FB681B689969BB6867
:1034C4001A69FB681B680A439A6164E0FB681B681D
:1034D400B968184600F05AF9FB681B689A69FB68DA
:1034E4001B6842F400629A61FB681B689A69FB6876
:1034F4001B6822F480629A61FB681B689969BB6847
:103504001B691A02FB681B680A439A6143E0FB6863
:103514001B68B968184600F0A5F9FB681B68DA69EE
:10352400FB681B6842F00802DA61FB681B68DA6911
:10353400FB681B6822F00402DA61FB681B68D96926
:10354400BB681A69FB681B680A43DA6123E0FB68FD
:103554001B68B968184600F0EFF9FB681B68DA6964
:10356400FB681B6842F40062DA61FB681B68DA6975
:10357400FB681B6822F48062DA61FB681B68D96906
:10358400BB681B691A02FB681B680A43DA6102E024
:103594000123FB7500BFFB68002283F83C20FB7D00
:1035A40018461837BD4680BD80B485B000AF78603A
:1035B40039607B681B68FB607B683A4A93420FD092
:1035C4007B68B3F1804F0BD07B68374A934207D0B6
:1035D4007B68364A934203D07B68354A934208D1CC
:1035E400FB6823F07003FB603B685B68FA68134375
:1035F400FB607B682B4A93421BD07B68B3F1804FFE
:1036040017D07B68284A934213D07B68274A934299
:103614000FD07B68264A93420BD07B68254A93429D
:1036240007D07B68244A934203D07B68234A9342A1
:1036340008D1FB6823F44073FB603B68DB68FA68DD
:103644001343FB60FB6823F080023B685B69134310
:10365400FB607B68FA681A603B689A687B68DA6288
:103664003B681A687B689A627B680E4A934203D16E
:103674003B681A697B681A637B6801225A617B681C
:103684001B6903F00103012B05D17B681B6923F03F
:1036940001027B681A6100BF1437BD465DF8047BE4
:1036A400704700BF000001400004004000080040D3
:1036B400000C00400040014000440140004801402B
:1036C40080B487B000AF786039607B681B6A7B6127
:1036D4007B681B6A23F001027B681A627B685B6863
:1036E4003B617B689B69FB60FB6823F07003FB60B4
:1036F400FB6823F00303FB603B681B68FA68134311
:10370400FB607B6923F002037B613B689B687A69F9
:1037140013437B617B681C4A93420CD17B6923F081
:1037240008037B613B68DB687A6913437B617B69CF
:1037340023F004037B617B68134A934211D13B69F4
:1037440023F480733B613B6923F400733B613B6862
:103754005B693A6913433B613B689B693A6913436C
:103764003B617B683A695A607B68FA689A613B6896
:103774005A687B685A637B687A691A6200BF1C378F
:10378400BD465DF8047B70470000014080B487B0FB
:1037940000AF786039607B681B6A7B617B681B6A59
:1037A40023F010027B681A627B685B683B617B686C
:1037B4009B69FB60FB6823F4E043FB60FB6823F434
:1037C4004073FB603B681B681B02FA681343FB6091
:1037D4007B6923F020037B613B689B681B017A694A
:1037E40013437B617B681E4A93420DD17B6923F0AE
:1037F40080037B613B68DB681B017A6913437B614F
:103804007B6923F040037B617B68154A934213D1A3
:103814003B6923F480633B613B6923F400633B61B0
:103824003B685B699B003A6913433B613B689B6956
:103834009B003A6913433B617B683A695A607B6831
:10384400FA689A613B685A687B689A637B687A690C
:103854001A6200BF1C37BD465DF8047B704700BF89
:103864000000014080B487B000AF786039607B68A5
:103874001B6A7B617B681B6A23F480727B681A6213
:103884007B685B683B617B68DB69FB60FB6823F0FA
:103894007003FB60FB6823F00303FB603B681B6859
:1038A400FA681343FB607B6923F400737B613B6814
:1038B4009B681B027A6913437B617B681D4A9342B0
:1038C4000DD17B6923F400637B613B68DB681B02D9
:1038D4007A6913437B617B6923F480637B617B6832
:1038E400144A934213D13B6923F480533B613B69EF
:1038F40023F400533B613B685B691B013A69134342
:103904003B613B689B691B013A6913433B617B68DC
:103914003A695A607B68FA68DA613B685A687B687E
:10392400DA637B687A691A6200BF1C37BD465DF8AA
:10393400047B70470000014080B487B000AF78601A
:1039440039607B681B6A3B617B681B6A23F4805285
:103954007B681A627B685B687B617B68DB69FB6000
:10396400FB6823F4E043FB60FB6823F44073FB60D3
:103974003B681B681B02FA681343FB603B6923F432
:1039840000533B613B689B681B033A6913433B61EB
:103994007B68104A934209D17B6923F480437B619D
:1039A4003B685B699B017A6913437B617B687A6935
:1039B4005A607B68FA68DA613B685A687B681A6403
:1039C4007B683A691A6200BF1C37BD465DF8047B08
:1039D400704700BF0000014080B487B000AFF860BA
:1039E400B9607A60BB6803F01F03012202FA03F393
:1039F4007B61FB681A6A7B69DB431A40FB681A62C5
:103A0400FB681A6ABB6803F01F03796801FA03F3C1
:103A14001A43FB681A6200BF1C37BD465DF8047B7D
:103A24007047000080B485B000AF786039607B686F
:103A340093F83C30012B01D1022350E07B68012232
:103A440083F83C207B68022283F83D207B681B6856
:103A54005B68FB607B681B689B68BB60FB6823F04A
:103A64007003FB603B681B68FA681343FB607B6868
:103A74001B68FA685A607B681B681C4A934218D01A
:103A84007B681B68B3F1804F13D07B681B68184AAE
:103A940093420ED07B681B68164A934209D07B6818
:103AA4001B68154A934204D07B681B68134A9342EF
:103AB4000CD1BB6823F08003BB603B685B68BA68C9
:103AC4001343BB607B681B68BA689A607B680122F9
:103AD40083F83D207B68002283F83C2000231846AD
:103AE4001437BD465DF8047B704700BF00000140F9
:103AF4000004004000080040000C00400040014069
:103B040080B582B000AF78607B68002B01D10123BF
:103B140042E07B6893F84130DBB2002B06D17B682E
:103B2400002283F840207868FDF7F0FA7B682422AD
:103B340083F841207B681B68DA687B681B6822F481
:103B44000052DA60786800F0DBFC7B681B681A6955
:103B54007B681B6822F490421A617B681B685A696F
:103B64007B681B6822F02A025A617B681B68DA684A
:103B74007B681B6842F40052DA607B6800225A6456
:103B84007B68202283F841207B68202283F842202E
:103B94007B6800225A63002318460837BD4680BD5F
:103BA40080B584B000AFF860B9601346FB80FB6851
:103BB40093F84230DBB2202B12D1BB68002B02D029
:103BC400FB88002B01D101230BE0FB6800221A6360
:103BD400FB881A46B968F86800F0BAFA034600E0B0
:103BE400022318461037BD4680BD000080B5BAB028
:103BF40000AF78607B681B681B68C7F8E4307B689B
:103C04001B68DB68C7F8E0307B681B685B69C7F832
:103C1400DC300023C7F8D8300023C7F8D430D7F8F5
:103C2400E43003F00F03C7F8D830D7F8D830002BAE
:103C34000FD1D7F8E43003F02003002B09D0D7F8D4
:103C4400E03003F02003002B03D0786800F099FBE8
:103C54005BE2D7F8D830002B00F0DE80D7F8DC30F8
:103C640003F00103002B06D1D7F8E03003F490737E
:103C7400002B00F0D180D7F8E43003F00103002BCF
:103C84000BD0D7F8E03003F48073002B05D07B68A9
:103C94005B6C43F001027B685A64D7F8E43003F0AC
:103CA4000403002B0BD0D7F8DC3003F00103002B06
:103CB40005D07B685B6C43F002027B685A64D7F8DA
:103CC400E43003F00203002B0BD0D7F8DC3003F010
:103CD4000103002B05D07B685B6C43F004027B6816
:103CE4005A64D7F8E43003F00803002B11D0D7F856
:103CF400E03003F02003002B05D1D7F8DC3003F0CB
:103D04000103002B05D07B685B6C43F008027B68E1
:103D14005A647B685B6C002B00F0F281D7F8E430C6
:103D240003F02003002B08D0D7F8E03003F0200381
:103D3400002B02D0786800F024FB7B681B685B6969
:103D440003F04003402B0CBF01230023DBB2C7F870
:103D5400D4307B685B6C03F00803002B03D1D7F8E5
:103D6400D430002B4FD0786800F02CFA7B681B68A5
:103D74005B6903F04003402B41D17B681B6814331B
:103D8400C7F89C30D7F89C3053E8003FC7F8983008
:103D9400D7F8983023F04003C7F8D0307B681B680D
:103DA4001433D7F8D020C7F8A820C7F8A430D7F820
:103DB400A410D7F8A82041E80023C7F8A030D7F80A
:103DC400A030002BD9D17B68DB6B002B13D07B6830
:103DD400DB6B7E4A1A657B68DB6B1846FEF760F97D
:103DE4000346002B16D07B68DB6B1B6D7A68D26BA5
:103DF400104698470EE0786800F094F90AE0786875
:103E040000F090F906E0786800F08CF97B680022F5
:103E14005A6475E100BF73E17B681B6B012B40F0B2
:103E24004F81D7F8E43003F01003002B00F04881F1
:103E3400D7F8E03003F01003002B00F04181002399
:103E4400BB607B681B681B68BB607B681B685B6826
:103E5400BB60BB687B681B685B6903F04003402B55
:103E640040F0B6807B68DB6B1B685B68A7F8BE30EC
:103E7400B7F8BE30002B00F045817B689B8DB7F806
:103E8400BE209A4280F03E817B68B7F8BE20DA8576
:103E94007B68DB6BDB69B3F5807F00F088807B682F
:103EA4001B680C33C7F88830D7F8883053E8003FD4
:103EB400C7F88430D7F8843023F48073C7F8B83057
:103EC4007B681B680C33D7F8B820C7F89420C7F870
:103ED4009030D7F89010D7F8942041E80023C7F821
:103EE4008C30D7F88C30002BD9D17B681B68143305
:103EF4007B677B6F53E8003F3B673B6F23F0010315
:103F0400C7F8B4307B681B681433D7F8B420C7F8FB
:103F14008020FB67F96FD7F8802041E80023BB6756
:103F2400BB6F002BE1D17B681B6814333B663B6E8F
:103F340053E8003FFB65FB6D23F04003C7F8B03046
:103F44007B681B681433D7F8B020FA66BB66B96E79
:103F5400FA6E41E800237B667B6E002BE3D17B681D
:103F6400202283F842207B6800221A637B681B6846
:103F74000C33FB64FB6C53E8003FBB64BB6C23F065
:103F84001003C7F8AC307B681B680C33D7F8AC203F
:103F9400BA657B65796DBA6D41E800233B653B6D7D
:103FA400002BE3D17B68DB6B1846FEF709F87B68CE
:103FB40002225A637B689A8D7B68DB8D9BB2D31A8D
:103FC4009BB21946786800F0B7F89BE08F4200086E
:103FD4007B689A8D7B68DB8D9BB2D31AA7F8CE30B1
:103FE4007B68DB8D9BB2002B00F08E80B7F8CE305F
:103FF400002B00F089807B681B680C33BB63BB6BB0
:1040040053E8003F7B637B6B23F49073C7F8C8309D
:104014007B681B680C33D7F8C8207A643B64396C1E
:104024007A6C41E80023FB63FB6B002BE3D17B68D4
:104034001B6814337B627B6A53E8003F3B623B6A34
:1040440023F00103C7F8C4307B681B681433D7F826
:10405400C4203A63FB62F96A3A6B41E80023BB620D
:10406400BB6A002BE3D17B68202283F842207B6863
:1040740000221A637B681B680C333B613B6953E87D
:10408400003FFB60FB6823F01003C7F8C0307B6877
:104094001B680C33D7F8C020FA61BB61B969FA69AF
:1040A40041E800237B617B69002BE3D17B6802221A
:1040B4005A63B7F8CE301946786800F03DF823E02B
:1040C400D7F8E43003F08003002B09D0D7F8E030B0
:1040D40003F08003002B03D0786800F0EAF814E0C2
:1040E400D7F8E43003F04003002B0ED0D7F8E030CB
:1040F40003F04003002B08D0786800F02AF904E0AC
:1041040000BF02E000BF00E000BFE837BD4680BD4D
:1041140080B483B000AF786000BF0C37BD465DF853
:10412400047B704780B483B000AF786000BF0C3765
:10413400BD465DF8047B704780B483B000AF7860FF
:104144000B467B8000BF0C37BD465DF8047B70478F
:1041540080B485B000AFF860B9601346FB80FB689B
:10416400BA689A62FB68FA889A85FB68FA88DA85E5
:10417400FB6800225A64FB68222283F84220FB6811
:104184001B69002B07D0FB681B68DA68FB681B6897
:1041940042F48072DA60FB681B685A69FB681B682A
:1041A40042F001025A61FB681B68DA68FB681B680D
:1041B40042F02002DA60002318461437BD465DF849
:1041C400047B704780B495B000AF78607B681B684F
:1041D4000C337B637B6B53E8003F3B633B6B23F403
:1041E4009073FB647B681B680C33FA6C3A64FB6362
:1041F400F96B3A6C41E80023BB63BB6B002BE5D140
:104204007B681B6814333B623B6A53E8003FFB61E5
:10421400FB6923F00103BB647B681B681433BA6C2D
:10422400FA62BB62B96AFA6A41E800237B627B6A7C
:10423400002BE5D17B681B6B012B19D17B681B68B4
:104244000C33FB60FB6853E8003FBB60BB6823F0A2
:1042540010037B647B681B680C337A6CBA617B61E6
:104264007969BA6941E800233B613B69002BE5D1D8
:104274007B68202283F842207B6800221A6300BFF7
:104284005437BD465DF8047B704780B584B000AFF9
:1042940078607B689B6BFB60FB680022DA85FB68B7
:1042A4000022DA84F868FFF73DFF00BF1037BD46EF
:1042B40080BD80B485B000AF78607B6893F84130EE
:1042C400DBB2212B3ED17B689B68B3F5805F14D1B0
:1042D4007B681B69002B10D17B681B6AFB60FB6841
:1042E4001B881A467B681B68C2F308025A607B6805
:1042F4001B6A9A1C7B681A6208E07B681B6A591C5B
:104304007A6811621A787B681B685A607B68DB8C58
:104314009BB2013B9BB27A681946D184002B0FD122
:104324007B681B68DA687B681B6822F08002DA60AD
:104334007B681B68DA687B681B6842F04002DA60BD
:10434400002300E0022318461437BD465DF8047BC1
:10435400704780B582B000AF78607B681B68DA680C
:104364007B681B6822F04002DA607B68202283F8B5
:1043740041207868FFF7CCFE002318460837BD4675
:1043840080BD80B58CB000AF78607B6893F8423014
:10439400DBB2222B40F0AE807B689B68B3F5805F74
:1043A40017D17B681B69002B13D10023FB627B6848
:1043B4009B6ABB627B681B685B689BB2C3F30803A0
:1043C4009AB2BB6A1A807B689B6A9A1C7B689A6261
:1043D40026E07B689B6AFB620023BB627B689B6868
:1043E400B3F5805F07D07B689B68002B0AD17B689C
:1043F4001B69002B06D17B681B685B68DAB2FB6A19
:104404001A7008E07B681B685B68DBB203F07F030B
:10441400DAB2FB6A1A707B689B6A5A1C7B689A62E0
:104424007B68DB8D9BB2013B9BB27A681946D185D0
:10443400002B5DD17B681B68DA687B681B6822F0FF
:104444002002DA607B681B68DA687B681B6822F4E8
:104454008072DA607B681B685A697B681B6822F08B
:1044640001025A617B68202283F842207B68002283
:104474005A637B681B6B012B35D17B6800221A635E
:104484007B681B680C337B617B6953E8003F3B61AD
:104494003B6923F010037B627B681B680C337A6AE8
:1044A4003A62FB61F9693A6A41E80023BB61BB697E
:1044B400002BE5D17B681B681B6803F01003102BED
:1044C4000AD10023FB607B681B681B68FB607B6868
:1044D4001B685B68FB60FB687B689B8D194678688A
:1044E400FFF72AFE02E07868FBF7F0FF002302E002
:1044F400002300E0022318463037BD4680BD00008B
:104504002DE9B04FC0B000AFC7F8F400D7F8F430CD
:104514001B681B6923F44050D7F8F430D968D7F8E6
:10452400F4301A6840EA01031361D7F8F4309A684A
:10453400D7F8F4301B691A43D7F8F4305B691A438F
:10454400D7F8F430DB691343C7F8F830D7F8F43000
:104554001B68DB6823F4164121F00C01D7F8F43012
:104564001A68D7F8F8300B43D360D7F8F4301B68D7
:104574005B6923F44070D7F8F4309969D7F8F430C4
:104584001A6840EA01035361D7F8F4301A688F4B74
:104594009A4205D0D7F8F4301A688D4B9A4204D168
:1045A400FEF72CFEC7F8FC0003E0FEF713FEC7F885
:1045B400FC00D7F8F430DB69B3F5004F40F00C8110
:1045C400D7F8FC300022C7F8E830C7F8EC20D7E968
:1045D4003A4522462B469118B9655B41FB65D7E9FC
:1045E4001623214612EB0108294643EB01094FF03B
:1045F40000024FF000034FEAC90343EA58734FEA3D
:10460400C80290469946234618EB0303C7F8E030E6
:104614002B4649EB0303C7F8E430D7F8F4305B6862
:104624000022C7F8D830C7F8DC20D7E936120B4689
:10463400DB183B65134642EB03037B65D7E9142380
:10464400D7E93801FBF7C4FD02460B46614BA3FBD7
:1046540002235B091C01D7F8FC300022C7F8D030D4
:10466400C7F8D420D7E9348942464B469118B96437
:104674005B41FB64D7E91223414612EB010A494628
:1046840043EB010B4FF000024FF000034FEACB0362
:1046940043EA5A734FEACA0292469B4643461AEBD0
:1046A4000303C7F8C8304B464BEB0303C7F8CC30C1
:1046B400D7F8F4305B680022C7F8C030C7F8C420CC
:1046C400D7E930120B46DB183B64134642EB030375
:1046D4007B64D7E91023D7E93201FBF779FD024661
:1046E4000B4611463B4BA3FB01235B09642202FBEF
:1046F40003F3CB1ADB0003F13202364BA3FB022394
:104704005B095B0003F4F8731C44D7F8FC30002207
:10471400C7F8B830C7F8BC20D7E92E8942464B46C3
:104724009118B9635B41FB63D7E90E2341465118E5
:10473400396349464B417B634FF000024FF000035D
:10474400D7E90CAB5946CB00514643EA5173514665
:10475400CA0010461946034642469B18C7F8B030B3
:104764004B460A4642EB0303C7F8B430D7F8F4309B
:104774005B680022C7F8A830C7F8AC20D7E92A1232
:104784000B46DB18BB62134642EB0303FB62D7E91B
:104794000A23D7E92C01FBF71BFD02460B460D4B00
:1047A400A3FB02135B09642101FB03F3D31ADB00AF
:1047B4003233084AA2FB03235B0903F00702D7F84C
:1047C400F4301B6822449A6006E100BF00100140E7
:1047D400001401401F85EB51D7F8FC300022C7F8C4
:1047E400A030C7F8A420D7E9288942464B4691183F
:1047F40039625B417B62D7E9082341465418494634
:1048040043EB01054FF000024FF00003EB0043EAD5
:104814005473E20014461D464346E318C7F8983023
:104824004B4645EB0303C7F89C30D7F8F4305B687C
:104834000022C7F89030C7F894204FF000024FF0E0
:104844000003D7E9244529468B00214643EA9173A6
:1048540021468A00D7E92601FBF7BAFC02460B463B
:10486400604BA3FB02235B091C01D7F8FC30002238
:10487400C7F88830C7F88C20D7E9228942464B46CE
:104884009118B9615B41FB61D7E906234146511890
:10489400396149464B417B614FF000024FF0000300
:1048A400D7E904AB5946CB00514643EA517351460C
:1048B400CA0010461946034642469B18C7F8803082
:1048C4004B460A4642EB0303C7F88430D7F8F4306A
:1048D4005B680022BB67FA674FF000024FF00003E9
:1048E400D7E91E8949468B00414643EA9173414604
:1048F4008A00D7E92001FBF76BFC02460B46114600
:10490400384BA3FB01235B09642202FB03F3CB1A9C
:104914001B013233334AA2FB03235B0903F0F00388
:104924001C44D7F8FC3000223B677A67D7E91C891E
:1049340042464B469118B9605B41FB60D7E90223BC
:1049440041465118396049464B417B604FF00002A3
:104954004FF00003D7E900AB5946CB00514643EA78
:1049640051735146CA0010461946034642469B18E5
:10497400BB664B460A4642EB0303FB66D7F8F430AA
:104984005B6800223B667A664FF000024FF000033A
:10499400D7E9188949468B00414643EA9173414659
:1049A4008A00D7E91A01FBF713FC02460B460D4BAC
:1049B400A3FB02135B09642101FB03F3D31A1B015C
:1049C4003233084AA2FB03235B0903F00F02D7F832
:1049D400F4301B6822449A6000BF07F58077BD4617
:1049E400BDE8B08F1F85EB5102440346934200D1CA
:1049F400704703F8011BF9E770B50D4D0D4C641BAE
:104A0400A4100026A64209D10B4D0C4C00F018F856
:104A1400641BA4100026A64205D170BD55F8043BC2
:104A240098470136EEE755F8043B98470136F2E71C
:104A3400844A0008844A0008844A0008884A000816
:104A4400F8B500BFF8BC08BC9E467047F8B500BF77
:084A5400F8BC08BC9E46704747
:104A5C000000000000000000010203040607080922
:104A6C0000000000010203040006101600061016D8
:084A7C0088B7FF7F0100000074
:044A8400B90100086C
:044A8800950100088C
:104A8C002C010000010200000024F40010000000C2
:044A9C000100000015
:040000050800127964
:00000001FF
